:020000040800F2
:1000000000800120211500080D1400080F140008BD
:100010001114000813140008151400080000000053
:10002000000000000000000000000000171400089D
:1000300019140008000000001B1400081D1400081B
:100040007115000871150008711500087115000878
:100050007115000871150008711500087115000868
:100060007115000871150008711500087115000858
:100070007115000871150008711500082514000895
:1000800071150008711500087115000800000000C6
:1000900000000000000000000000000071150008D2
:1000A0007115000871150008711500087115000818
:1000B0007115000871150008711500087115000808
:1000C00071150008711500087115000871150008F8
:1000D0007115000871150008711500080000000076
:1000E0007115000871150008711500080000000066
:1000F0000000000000000000000000007115000872
:100100000000000071150008711500087115000845
:1001100000000000000000000000000000000000DF
:100120007115000871150008711500087115000897
:100130007115000800000000000000000000000031
:100140000000000000000000000000007115000821
:100150007115000871150008711500087115000867
:100160007115000871150008000000000000000073
:10017000000000000000000000000000000000007F
:1001800000000000711500080000000000000000E1
:0401900071150008DD
:100194000348044B834202D0034B03B11847704712
:1001A4004C0800204C0800200000000005480649C7
:1001B4000B1AD90F01EBA301491002D0034B03B171
:1001C400184770474C0800204C080020000000002D
:1001D40010B5064C237843B9FFF7DAFF044B13B18B
:1001E4000448AFF300800123237010BD4C080020A5
:1001F400000000006037000808B5044B1BB1044937
:100204000448AFF30080BDE80840CFE700000000D9
:10021400500800206037000853B94AB9002908BFC4
:1002240000281CBF4FF0FF314FF0FF3000F074B9CD
:10023400ADF1080C6DE904CE00F006F8DDF804E039
:10024400DDE9022304B070472DE9F047089E0D460E
:1002540004468846002B4DD18A42944668D9B2FAA6
:1002640082F252B101FA02F3C2F1200120FA01F143
:100274000CFA02FC41EA030894404FEA1C45210CA5
:10028400B8FBF5FE1FFA8CF705FB1E8341EA034316
:100294000EFB07F199420BD91CEB03030EF1FF305F
:1002A40080F01E81994240F21B81AEF1020E63443C
:1002B4005B1AA4B2B3FBF5F005FB103344EA034424
:1002C40000FB07F7A7420AD91CEB040400F1FF3333
:1002D40080F00881A74240F2058164440238E41B9F
:1002E40040EA0E4000211EB1D4400023C6E9004379
:1002F400BDE8F0878B4208D9002E00F0EE80002183
:10030400C6E900050846BDE8F087B3FA83F1002981
:100314004AD1AB4202D3824200F2F980841A65EBDF
:10032400030301209846002EE2D0C6E90048DFE727
:1003340002B9FFDEB2FA82F2002A40F09180A1EB0A
:100344000C054FEA1C471FFA8CFE0121B5FBF7F39D
:1003540007FB1350250C45EA00450EFB03F0A842A9
:1003640008D91CEB050503F1FF3802D2A84200F2BC
:10037400CB8043462D1AA4B2B5FBF7F007FB10550A
:1003840044EA05440EFB00FEA64508D91CEB040410
:1003940000F1FF3502D2A64500F2BB802846A4EB4B
:1003A4000E0440EA03409EE7C1F120078B4022FA85
:1003B40007FC4CEA030C20FA07F405FA01F31C438A
:1003C400FD404FEA1C4900FA01F3B5FBF9F8200C93
:1003D4001FFA8CFE09FB185540EA054508FB0EF090
:1003E400A84202FA01F20BD91CEB050508F1FF3A09
:1003F40080F08880A84240F28580A8F10208654414
:100404002D1AA4B2B5FBF9F009FB105544EA0545D1
:1004140000FB0EFEAE4508D91CEB050500F1FF34C8
:100424006CD2AE456AD90238654440EA0840A0FB64
:100434000294A5EB0E05A542C846A64656D353D052
:100444005EB1B3EB080265EB0E0505FA07F722FA75
:1004540001F3CD401F43C6E900750021BDE8F087D4
:10046400C2F1200320FA03F10CFA02FC25FA03F38B
:1004740095400D434FEA1C471FFA8CFEB3FBF7F17E
:1004840007FB11302B0C43EA004301FB0EF09842AA
:1004940004FA02F408D91CEB030301F1FF382FD24C
:1004A40098422DD9023963441B1AADB2B3FBF7F05D
:1004B40007FB103345EA034500FB0EF3AB4208D9B2
:1004C4001CEB050500F1FF3816D2AB4214D90238F3
:1004D4006544ED1A40EA014138E73146304607E702
:1004E4008646E5E61846FAE64B45A9D2B9EB02087A
:1004F40064EB0C0E0138A3E74046EAE7204694E794
:100504004146D1E7D0467BE7023B654432E70846E3
:1005140009E76444023842E7704700BF00230146FC
:100524001A46184600F0E4BC10B4044C03460A46CC
:10053400206810BC194600F003B800BF000000207A
:1005440010B502FB01F100F0C1F9044668B150F89E
:10055400042C22F00302043A242A18D8132A06D8B9
:1005640002460023C2E900339360204610BD0023F5
:100574001B2AC0E900330FD9242AC0E9023311BF72
:1005840000F11002036100F118024361E9E7002160
:1005940000F046FC204610BD00F10802E1E700BF70
:1005A400014B1868704700BF0000002038B5084BA5
:1005B400084D5B1B9C1007D0043B1D44013C55F8BF
:1005C40004399847002CF9D1BDE8384003F0CCB881
:1005D400ACA20008A8A20008F8B5244F0C460646B1
:1005E40000F070FCBA685568C4F57E630F3325F0DB
:1005F40003052B4423F47F6323F00F03A3F58054F6
:10060400B4F5805F07DB0021304600F05FFCBB6877
:100614002B44984204D0304600F056FC0020F8BD2C
:100624006142304600F052FC01300DD0104ABB68E4
:100634002D1B45F001055D60136830461B1B1360DC
:1006440000F042FC0120F8BD0021304600F03EFCE1
:10065400BA68831A0F2BDEDD43F001035360054BA8
:1006640003491B68C01A0860D5E700BF30040020A6
:100674006C08002038080020002961D0F8B50C4629
:10068400064600F01FFC54F8042C7B4FA4F1080527
:1006940022F0010105EB010CB868DCF80430604578
:1006A40023F0030300F08B80D207CCF8043032D45B
:1006B40054F8082CAD1A1144AA6807F108008242C4
:1006C4006AD00CEB0304D4F804E0EC68D4601EF0A8
:1006D400010FA26000F0978041F001036B60CCF839
:1006E4000010B1F5007F35D27A68CB0848090121A2
:1006F400013381401143796007EBC30257F833108B
:10070400083AC5E9021247F83350CD603046BDE8D7
:10071400F84000F0D9BB0CEB03025268D00710D4A8
:10072400194407F10800DCF80830834273D0DCF880
:100734000C20DA60936041F001036B606950D0E7EC
:10074400704741F00103B1F5007F44F8043CCCF854
:100754000010C9D3B1F5206F4FEA512348D28B0959
:1007640003F1390003F13802C300F818FB580838C4
:10077400984259D05A6822F003028A4202D99B68EF
:100784009842F7D1D868C5E902308560DD6030460B
:10079400BDE8F84000F098BB0CEB03025268D207A6
:1007A40063D40B44DCE90212CA60916043F0010295
:1007B4006A603046EB50BDE8F84000F085BB0B445E
:1007C400D10707D454F8082CAD1A1344D5E9021202
:1007D400CA60916043F001026A60284ABD601268F1
:1007E4009A4293D8264B30461968FFF7F5FE8DE7F9
:1007F400142B0AD9542B1FD80B0B03F16F0003F1F0
:100804006E02C300B1E719448DE703F15C0003F104
:100814005B02C300A9E741F00103C7E90455C5E938
:1008240002006B60695071E779689210012404FA40
:1008340002F20A437A60A6E7B3F5AA7F06D8CB0B87
:1008440003F1780003F17702C3008EE740F25452BB
:10085400934206D88B0C03F17D0003F17C02C300A4
:1008640083E74FF47E737E227FE741F001036B60E0
:10087400CCF800104AE700BF300400203C080020F8
:100884006808002070B50D4E0D4D761BB61006D0CD
:10089400002455F8043B01349847A642F9D1094E87
:1008A400094D761B02F05AFFB61006D0002455F805
:1008B400043B01349847A642F9D170BDA0A20008B8
:1008C400A0A20008A8A20008A0A200082DE9F04FE9
:1008D40001F10B06162E83B0044624D8102900F229
:1008E400BA8000F0EFFA102618220220B74F3A44DB
:1008F400A2F1080153688B4200F0BA805A68D968A3
:1009040022F003021A449D68E9608D60516841F049
:1009140001012046516003F1080500F0D5FA28468C
:1009240003B0BDE8F08F36F0070600F19480B142C1
:1009340000F2918000F0C6FAB6F5FC7FC0F0968113
:10094400730A00F08F80042B00F26B81B30903F16A
:10095400390003F1380CC3009C4F3B44A3F1080554
:100964005B689D4206D10CE0002980F22B81DB6894
:100974009D4206D05A6822F00302911B0F29F3DD31
:1009840060463D69DFF848C265457CD06A6822F05C
:100994000302931B0F2B00F37781002BC7E904CCD0
:1009A40080F26881B2F5007F80F01681D3087968FF
:1009B40001334FEA521E012202FA0EF20A4357F89B
:1009C40033E0C5F808E007EBC3010839E9607A6051
:1009D40047F83350CEF80C508310012199409142CE
:1009E40057D8114206D120F003004900114200F10A
:1009F4000400FAD007EBC0094D468646D5F80C80B2
:100A0400454508D119E1002B80F22081D8F80C80EB
:100A1400454500F01281D8F8042022F00302931B0C
:100A24000F2BF0DD2046D8E9025408EB060146F00E
:100A34000106C8F80460EC60A56043F00104C7E94E
:100A44000411C1E902CC4C6048F8023000F03CFAD1
:100A540008F1080502E00C2323600025284603B0B2
:100A6400BDE8F08F4FF4007340204FF03F0C73E764
:100A7400D3689A4208BF02307FF440AF3D69DFF883
:100A840050C1654582D17A68831001219940914211
:100A9400A7D9BD686B6823F00308464503D8A8EBC3
:100AA40006030F2B7EDCDFF82C91D7F80824D9F845
:100AB40000300132334405EB080A00F02F8103F5BE
:100AC40080530F3323F47F6B2BF00F0B59462046D2
:100AD40000F0FCF9411C024600F0EF80824500F270
:100AE400EA80D9F804105944C9F804100B4600F000
:100AF4004B81D7F8081401311BBFA2EB0A0A5344F7
:100B0400C7F80824C9F8043012F0070300F0128172
:100B1400C3F108010A44C3F5805193440831A1EBA1
:100B24000B01C1F30B0A514620460192009300F0D9
:100B3400CDF9421CDDE9003200F04B81831A03EB4E
:100B44000A0BD9F80400BA604BF001030AEB000168
:100B5400BD425360C9F8041000F02281B8F10F0FB0
:100B640040F220816B68A8F10C0020F0070003F02C
:100B7400010303436B604FF0050C2B180F28C3E9E6
:100B840001CC00F22D8153681546D9F82C208A42F5
:100B9400D9F8302038BFC9F82C108A4238BFC9F8B8
:100BA40030108CE0AA1943F0010346F001066E6090
:100BB4002046BA60536000F087F90835284603B030
:100BC400BDE8F08FD9681A449DE600BF30040020C8
:100BD4003804002068080020B2F5206F4FEA522341
:100BE40063D3142B00F2B88003F15C01C9005B33BA
:100BF40007EB010E7958AEF1080E8E4500F0918096
:100C04004B6823F00303934202D989688E45F7D1D8
:100C1400D1F80CE07A68C5E9021ECEF80850CD6020
:100C2400DAE6142B59D9542B00F29E80330B03F1CE
:100C34006F0003F16E0CC3008EE60EF1010E1EF080
:100C4400030F05F108057FF4D9AE51E0424445464F
:100C54005368D8F80C1043F00103536055F8083F6B
:100C64002046D9608B6000F02FF9F7E6F00806F112
:100C740008023BE62A442046536843F001035360CC
:100C8400083500F021F9E9E6A919204646F00106E5
:100C940043F001046E60C7E90411C1E902CC4C6061
:100CA400AB5000F011F90835D8E6930903F1390186
:100CB400C90038339CE7BD4260D0BD686B6823F03F
:100CC400030B5E45ABEB060302D80F2B3FF76AAF6D
:100CD400204600F0F9F80025C0E603F15C0003F1BA
:100CE4005B0CC30038E659F808394B4540F0968050
:100CF40010F0030F00F1FF30F5D17B6823EA010304
:100D04007B60490099423FF6C4AE19B9C1E6490077
:100D14000EF1040E1942FAD070466BE603F1100B83
:100D2400D4E69A104FF001087B6808FA02F21A43DD
:100D34007A6070E702EB0B014942C1F30B0A51469A
:100D440020460193009200F0C1F8431CDDE9002322
:100D54007FF4F4AE9A46F4E6542B26D8130B03F131
:100D64006F01C9006E3343E7B3F5AA7F26D8F30BAE
:100D740003F1780003F1770CC300EDE5D9F80430F2
:100D84005B44C9F80430B4E6CAF30B0000287FF4CE
:100D9400B0AEBD6808EB0B0343F001036B60F4E6EF
:100DA4001546F2E60123536092E7B3F5AA7F21D8F2
:100DB400D30B03F17801C900773319E740F2545299
:100DC400934221D8B30C03F17D0003F17C0CC300E2
:100DD400C2E5083B9B44ABEB020B4FF0000AB0E6C4
:100DE40005F108012046FFF747FCBD68D9F8041057
:100DF4006B68CAE640F254518B420BD8930C03F152
:100E04007D01C9007C33F3E64FF47E737F204FF0FD
:100E14007E0CA1E54FF47E717E23E9E67B6870E7E2
:100E2400830730B548D0541E002A3FD0CAB20346C7
:100E340001E0013C3AD303F8012B9D07F9D1032CBF
:100E44002DD9CDB245EA05250F2C45EA054536D9FD
:100E5400A4F1100222F00F0C03F1200EE6444FEA35
:100E6400121C03F1100242E9045542E90255103202
:100E74007245F8D10CF1010214F00C0F03EB0212CD
:100E840004F00F0C13D0ACF1040323F00303043378
:100E9400134442F8045B9342FBD10CF003042CB1DD
:100EA400CAB21C4403F8012B9C42FBD130BD6446FA
:100EB4001346002CF4D1F9E703461446BFE71A465B
:100EC400A446E0E7704700BF704700BF38B5074D40
:100ED4000022044608462A6000F0AAFA431C00D007
:100EE40038BD2B68002BFBD0236038BD9C08002044
:100EF40070B4184C2568D5F848411CB365681F2D9B
:100F040025DC38B9AB1C0135656044F8231000209A
:100F140070BC704704EB850C0228CCF88820D4F808
:100F240088614FF0010202FA05F246EA0206C4F8AB
:100F34008861CCF80831E5D1D4F88C311343C4F876
:100F44008C31DFE705F5A674C5F84841D6E74FF0C4
:100F5400FF30DDE77837000800B583B00021019148
:100F6400094B1A6B42F400121A631B6B03F400134F
:100F74000193019B0A460F2000F072FB0F2000F042
:100F8400A7FB03B05DF804FB003802402DE9F043F1
:100F94008BB0002405940694079408940994009453
:100FA400454B1A6B42F004021A631A6B02F00402F6
:100FB4000092009A01941A6B42F080021A631A6B31
:100FC40002F080020192019A02941A6B42F001022B
:100FD4001A631A6B02F001020292029A03941A6BCA
:100FE40042F002021A631A6B02F002020392039A9D
:100FF40004941A6B42F008021A631B6B03F0080393
:101004000493049BDFF8B490224649F620714846C5
:1010140000F068FE2A4F224641F6F071384600F08F
:1010240061FE284E22464DF2F701304600F05AFE8A
:1010340001224FF40051304600F054FEDFF888805E
:1010440022460421404600F04DFE4FF40053059320
:101054004FF404130693079405A9384600F062FD83
:1010640049F620730593012506950794089405A96C
:10107400484600F057FD41F6F07305930695079432
:10108400089405A9384600F04DFD4FF2F703059387
:1010940006950794089405A9304600F043FD0423FF
:1010A400059306950794089405A9404600F03AFD77
:1010B4000BB0BDE8F08300BF0038024000000240DE
:1010C4000008024000040240000C024008B5034B33
:1010D400834200D008BD01F0DBFDFBE700090020DE
:1010E40072B6FEE700B595B03022002108A8FFF7DC
:1010F40097FE0023039304930593069307930193A8
:101104001F4A116C41F080511164126C02F080523C
:101114000192019A02931B490A6822F4404242F464
:1011240000420A600A6802F440420292029A0222D1
:10113400089201210B9110210C910E920F93082318
:1011440010933C23119312920723139308A800F0E1
:10115400CFFD88B90F23039302230493002305933F
:101164004FF4805206920793012103A801F026F858
:1011740020B915B05DF804FBFFF7B2FFFFF7B0FF2D
:101184000038024000700040F0B583B000F016FA59
:10119400FFF7A8FFFFF7FAFEFFF7DEFE00F06EF997
:1011A40000F080F801F014FE044601F0E4FDFF2293
:1011B4001146104602F0B7FA364D374B01930090B2
:1011C400142305222946204602F064F8FF22114622
:1011D400104602F0A8FA314B0193009046230522F1
:1011E4002946204602F056F8FF221146104602F026
:1011F4009AFA2B4B0193009064230522294620463A
:1012040002F048F8204601F0FFFD002739E0AEB2B5
:101214000022FF21084602F086FA06F10903019034
:10122400452200921BB232220A21204602F01CFA07
:10123400322000F0EFF9204601F0E6FD0135632D80
:10124400E5DD64251AE0204601F095FDAEB20022EA
:10125400FF21084602F067FA06F1090301904522CE
:1012640000921BB232220A21204602F0FDF93220FC
:1012740000F0D0F9204601F0C7FD013D002DE2DC6D
:101284000137B7F5FA7F01DA0025D8E7204601F0E7
:10129400BBFDFEE77C370008B0370008CC9400089B
:1012A400C45F000808B50E480E4B03604FF4827308
:1012B400436000238360C360036143614FF40072A1
:1012C40082611022C2610362436283620A23C362A1
:1012D40001F0E8F800B908BDFFF702FFFBE700BF23
:1012E40000090020003800402DE9F04389B00023B4
:1012F4000393049305930693079302682D4B9A4234
:1013040002D009B0BDE8F08304460025009503F53A
:1013140000331A6C42F480421A641A6C02F480425C
:101324000092009A01951A6B42F004021A631A6B38
:1013340002F004020192019A02951A6B42F0020231
:101344001A631B6B03F002030293029B08230393AB
:101354004FF00209CDF810904FF00308CDF8188033
:101364000527079703A9144800F0DCFB4FF48066B7
:101374000396CDF810900595CDF81880079703A92A
:101384000E4800F0CFFB0E480E4B0360456040232F
:101394008360C560066145618561C561056245621A
:1013A40000F036FA18B9064BA3649C63A9E7FFF76B
:1013B40097FEF8E7003800400008024000040240AD
:1013C400A00800207060024000B583B000210091A5
:1013D4000C4B5A6C42F480425A645A6C02F48042B8
:1013E4000092009A01911A6C42F080521A641B6CAC
:1013F40003F080530193019B072000F01FF903B011
:101404005DF804FB00380240FEE7FEE7FEE7FEE776
:10141400FEE770477047704708B500F0E9F808BD6B
:1014240008B5024800F090FA08BD00BFA0080020EB
:1014340010B503460C4A0D490D48006840B10C48EC
:1014440000680344521A934206D8094A136010BD37
:101454000748084C0460F2E7FFF7A2F80C23036086
:101464004FF0FF30F3E700BF0080012000200000B0
:1014740058090020E8A900207047000008B50A4870
:101484000A4B03604FF4E133436000238360C3607D
:1014940003610C2242618361C36101F087FA00B9E0
:1014A40008BDFFF71DFEFBE75C0900200044004077
:1014B40000B589B00023039304930593069307931F
:1014C4000268144B9A4202D009B05DF804FB002173
:1014D400019103F5FA331A6C42F400321A641A6C5F
:1014E40002F400320192019A02911A6B42F0010255
:1014F4001A631B6B03F001030293029B0C230393F7
:10150400022304930723079303A9034800F00AFB6B
:10151400DAE700BF0044004000000240DFF834D0A6
:101524000D480E490E4A002302E0D458C450043337
:10153400C4188C42F9D30B4A0B4C002301E013600E
:101544000432A242FBD3FFF797FFFFF79BF9FFF7A3
:101554001BFE704700800120000000204C08002082
:10156400ACA200084C080020E4A90020FEE700001B
:1015740010B504460E4B18784FF47A73B3FBF0F3AE
:101584000C4A1068B0FBF3F000F0B0F868B90F2C07
:1015940001D901200AE0002221464FF0FF3000F07B
:1015A4005FF8054B1C60002000E0012010BD00BF67
:1015B40044080020400800204808002008B50B4BD0
:1015C4001A6842F400721A601A6842F480621A605F
:1015D4001A6842F480721A60032000F02FF8002089
:1015E400FFF7C6FFFFF7F0FE002008BD003C0240F5
:1015F400034A1168034B1B780B441360704700BF08
:10160400A009002044080020014B1868704700BF5F
:10161400A009002038B50446FFF7F6FF0546B4F1EB
:10162400FF3F02D0044B1B781C44FFF7EDFF401B27
:10163400A042FAD338BD00BF44080020074AD3684B
:1016440023F4E0631B041B0C000200F4E06003437A
:1016540043F0BF6343F40033D360704700ED00E010
:1016640000B5194BDB68C3F30223C3F1070CBCF1CB
:10167400040F28BF4FF0040C03F1040EBEF1060F53
:1016840018D9033B4FF0FF3E0EFA0CFC21EA0C0183
:1016940099400EFA03F322EA0303194300280BDBF3
:1016A4000901C9B200F1604000F5614080F80013FF
:1016B4005DF804FB0023E5E700F00F000901C9B25F
:1016C400024B1954F4E700BF00ED00E014ED00E014
:1016D400002807DB00F01F02400901239340024A5F
:1016E40042F82030704700BF00E100E00138B0F15B
:1016F400807F0BD24FF0E0235861054AF02182F835
:1017040023100020986107221A6170470120704756
:1017140000ED00E030B405682C6824F480242C60CB
:10172400046863608368402B05D00368996003688C
:10173400DA6030BC704703689A600368D960F8E7E0
:1017440010B40368D9B210390B4AA2FB0142120942
:101754000A4CA25CC2655F2908D923F47F7323F085
:10176400030304338365806D10BC704723F47F73D7
:1017740023F003038365F6E7ABAAAAAAF8A100083D
:10178400836A826992B9012B0AD0022B02D00BB171
:1017940000207047C36A13F0807F28D1002070476F
:1017A400C36AB3F1C07F24D000207047B2F5005F54
:1017B40009D0022B25D9032B25D1C36A13F0807FCE
:1017C40023D100207047032B03D8DFE803F014046F
:1017D400140A00207047C36A13F0807F0DD10020E3
:1017E4007047C36AB3F1C07F09D00020704701205D
:1017F4007047012070470120704701207047012085
:101804007047012070470020704701207047000096
:1018140070B50446FFF7F8FE002C5BD005460223A2
:1018240084F83530002384F834302268136823F0B8
:101834000103136023681A6812F0010F0AD0FFF73E
:10184400E3FE431B052BF5D920236365032084F8AD
:10185400350070BD1A68204810406168A2680A43C8
:10186400E1680A4321690A4361690A43A1690A4399
:10187400E1690A43216A0A430243616A04291ED0CA
:101884001A602668756925F00705636A1D43042BF1
:1018940007D1A36A1D43E36A1BB12046FFF770FF1B
:1018A40090B975612046FFF74BFFE26D3F239340EB
:1018B400836000206065012384F83530C9E7E16A5C
:1018C400206B01430A43DBE740236365012084F86E
:1018D4003500BEE70120BCE73F8010F038B5044670
:1018E400856D90F8340001282BD0012084F8340051
:1018F40094F83500C0B2012804D0002384F83430B1
:10190400022038BD022084F835000020606520469E
:10191400FFF700FFE26D3F239340AB60226813683A
:1019240043F016031360236C23B12268136843F059
:10193400080313602268136843F001031360002056
:10194400DFE70220DDE70000F0B583B004460023A2
:101954000193724B1D68724BA3FB0535AD0A876D6D
:101964003E68C26D08239340334210D003681A685E
:1019740012F0040F0BD01A6822F004021A60C26D30
:1019840008239340BB60436D43F001034365E26D5C
:1019940001239340334209D02268526912F0800F28
:1019A40004D0BB60636D43F002036365E26D0423FE
:1019B4009340334209D02268126812F0020F04D017
:1019C400BB60636D43F004036365E26D10239340D1
:1019D400334224D02268126812F0080F1FD0BB6073
:1019E40023681A6812F4802F0DD01B6813F4002F9B
:1019F40004D1236C9BB12046984710E0A36C73B1CB
:101A0400204698470BE01A6812F4807F03D11A68C5
:101A140022F008021A60236C0BB120469847E26D4D
:101A240020239340334255D02268126812F0100FDD
:101A340050D0BB6094F83530DBB2052B0ED0236850
:101A44001A6812F4802F33D01B6813F4002F2AD1A4
:101A5400636C002B3ED0204698473BE02268136815
:101A640023F0160313602268536923F08003536143
:101A7400236CA3B12268136823F008031360E26D9A
:101A84003F239340BB60012384F83530002384F85E
:101A94003430236D002B3FD0204698473CE0A36CA4
:101AA400002BE7D1EBE7E36BA3B12046984711E0A5
:101AB4001A6812F4807F09D11A6822F010021A60A1
:101AC400012384F83530002384F83430E36B0BB100
:101AD40020469847636DFBB1636D13F0010F17D077
:101AE400052384F835302268136823F0010313605A
:101AF400019B01330193AB4204D823681B6813F0A4
:101B0400010FF5D1012384F83530002384F83430F3
:101B1400E36C0BB12046984703B0F0BD40080020A9
:101B2400B5814E1B00230F2B00F2D28070B582B01A
:101B340060E085685E000324B44025EA0405CC68AF
:101B4400B4402C438460456825EA02054C68C4F31C
:101B540000129A402A4342605AE0DC08083450F8E4
:101B6400246003F0070295000F22AA4026EA020E21
:101B74000A69AA4042EA0E0240F824205CE00422EA
:101B840000E0002202FA0EF22A430234514D45F8D5
:101B94002420514A94686FEA0C0224EA0C054E682A
:101BA40016F4801F01D04CEA04054B4CA560E46890
:101BB40002EA04054E6816F4001F01D04CEA04053D
:101BC400454CE560646802EA04054E6816F4003F7B
:101BD40001D04CEA0405404C6560246822404D68FD
:101BE40015F4803F01D04CEA04023B4C22600133DF
:101BF4000F2B6BD801229A400C6804EA020C32EADB
:101C04000404F4D14C6804F00304013C012C90D981
:101C14004A6802F00302032A09D0C4685D00032263
:101C2400AA4024EA02048A68AA402243C2604A689D
:101C340002F00302022A90D004684FEA430E032202
:101C440002FA0EF224EA02044A6802F0030202FADB
:101C54000EF2224302604A6812F4403FC7D00022C9
:101C640001921E4A546C44F480445464526C02F44D
:101C740080420192019A9C08A51C164A52F82550EC
:101C840003F003024FEA820E0F2202FA0EF225EA53
:101C94000205134A90423FF474AF02F58062904209
:101CA4000ED002F5806290420CD002F58062904220
:101CB4000AD002F5806290423FF461AF072261E7E7
:101CC40001225FE702225DE703225BE702B070BDF9
:101CD400704700BF00380140003C0140003802401A
:101CE400000002400AB181617047090481617047B4
:101CF400002800F0E08170B582B00446036813F058
:101D0400010F3BD09F4B9B6803F00C03042B2CD09A
:101D14009C4B9B6803F00C03082B21D06368B3F53C
:101D2400803F4FD0B3F5A02F52D0964B1A6822F4BF
:101D340080321A601A6822F480221A606368002BC9
:101D440050D0FFF761FC05468E4B1B6813F4003F2F
:101D540014D1FFF759FC401B6428F5D90320B1E1E5
:101D6400884B5B6813F4800FD8D0864B1B6813F440
:101D7400003F03D06368002B00F09F81236813F0B9
:101D8400020F54D07F4B9B6813F00C0F3ED07D4B59
:101D94009B6803F00C03082B33D0E368002B68D056
:101DA400794B01221A60FFF72FFC0546754B1B681F
:101DB40013F0020F54D1FFF727FC401B0228F5D97A
:101DC40003207FE16F4A136843F480331360B5E75F
:101DD4006C4B1A6842F480221A601A6842F480320A
:101DE4001A60ABE7FFF710FC0546664B1B6813F45B
:101DF400003FC3D0FFF708FC401B6428F5D903203B
:101E040060E1604B5B6813F4800FC6D15D4B1B68C7
:101E140013F0020F03D0E368012B40F05081594ABC
:101E2400136823F0F803216943EAC10313602368AC
:101E340013F0080F42D063696BB3534B0122C3F80C
:101E4400802EFFF7E1FB05464E4B5B6F13F0020F4C
:101E540034D1FFF7D9FB401B0228F5D9032031E127
:101E6400484A136823F0F803216943EAC103136065
:101E7400DDE7454B00221A60FFF7C6FB0546414BE0
:101E84001B6813F0020FD2D0FFF7BEFB401B0228E1
:101E9400F5D9032016E13C4B0022C3F8802EFFF74E
:101EA400B3FB0546374B5B6F13F0020F06D0FFF709
:101EB400ABFB401B0228F5D9032003E1236813F090
:101EC400040F77D02F4B1B6C13F0805F33D10023AA
:101ED40001932C4B1A6C42F080521A641B6C03F071
:101EE40080530193019B0125284B1B6813F4807FC9
:101EF40023D0A368012B34D0052B38D0214B1A6F83
:101F040022F001021A671A6F22F004021A67A3680A
:101F1400002B3DD0FFF778FB06461A4B1B6F13F0DE
:101F2400020F46D1FFF770FB801B41F288339842C1
:101F3400F3D90320C6E00025D6E7144A136843F416
:101F440080731360FFF760FB0646104B1B6813F4A5
:101F5400807FCED1FFF758FB801B0228F5D90320E0
:101F6400B0E0084A136F43F001031367CFE7054B52
:101F74001A6F42F004021A671A6F42F001021A67DC
:101F8400C5E700BF0038024000004742007000402F
:101F9400FFF73AFB0646524B1B6F13F0020F08D0B3
:101FA400FFF732FB801B41F288339842F3D90320B8
:101FB40088E0EDB9A369002B00F08380484A926859
:101FC40002F00C02082A51D0022B17D0454B0022F4
:101FD4001A66FFF719FB0446414B1B6813F0007F98
:101FE40042D0FFF711FB001B0228F5D9032069E05A
:101FF4003B4A136C23F080531364DBE7394B002214
:102004001A66FFF701FB0546354B1B6813F0007F8A
:1020140006D0FFF7F9FA401B0228F5D9032051E056
:10202400E369226A1343626A43EA8213A26A52088A
:10203400013A43EA0243E26A43EA0263284A5360EC
:10204400284B01221A66FFF7DFFA0446244B1B686B
:1020540013F0007F06D1FFF7D7FA001B0228F5D949
:1020640003202FE000202DE000202BE0012B2BD0BB
:102074001B4B5B6803F48001E269914226D103F0B3
:102084003F02216A8A4223D1616A47F6C0721A402C
:10209400B2EB811F1ED103F44031A26A5208013A07
:1020A400B1EB024F18D103F07063E26AB3EB026F35
:1020B40014D1002006E001207047012002E0012035
:1020C40000E0002002B070BD0120FBE70120F9E729
:1020D4000120F7E70120F5E70120F3E70120F1E70C
:1020E400003802400000474208B5314B9B6803F0BA
:1020F4000C03042B57D0082B57D12D4B5A6802F0F0
:102104003F025B6813F4800F2AD0294B5968C1F34E
:10211400881C4FEA4C11B1EB0C006EEB0E0E4FEA2B
:102124008E1343EA90638101091A63EB0E03DB000B
:1021340043EA5173C90011EB0C0C43F1000359023B
:1021440000234FEA4C2041EADC51FEF765F8184BB6
:102154005B68C3F3014301335B00B0FBF3F025E09C
:10216400134B5968C1F3881C4FEA4C11B1EB0C00B6
:102174006EEB0E0E4FEA8E1343EA90638101091A47
:1021840063EB0E03DB0043EA5173C90011EB0C0C43
:1021940043F10003990200234FEA8C2041EA9C5149
:1021A400FEF73AF8D3E7034800E0034808BD00BF50
:1021B4000038024000127A000024F400002800F0E5
:1021C4009B8070B50D4604464F4B1B6803F0070314
:1021D4008B4208D2CBB24C4A1370136803F0070346
:1021E4008B4240F08B80236813F0020F17D013F05A
:1021F400040F04D0454A936843F4E0539360236882
:1022040013F0080F04D0414A936843F46043936089
:102214003E4A936823F0F003A1680B43936023685C
:1022240013F0010F32D06368012B21D09A1E012ACA
:1022340025D9364A126812F0020F61D033498A68F0
:1022440022F0030213438B60FFF7DEF906462F4B9F
:102254009B6803F00C036268B3EB820F16D0FFF7A0
:10226400D3F9801B41F288339842F0D9032042E02D
:10227400264A126812F4003FE0D101203BE0234AD1
:10228400126812F0007FD9D1012034E01E4B1B6884
:1022940003F00703AB4207D9EAB21B4B1A701B6861
:1022A40003F00703AB422DD1236813F0040F06D0CB
:1022B400164A936823F4E053E1680B439360236860
:1022C40013F0080F07D0114A936823F4604321697F
:1022D40043EAC1039360FFF707FF0C4B9B68C3F30A
:1022E40003130B4AD35CD8400A4B18600A4B186896
:1022F400FFF73EF9002070BD012070470120FAE786
:102304000120F8E70120F6E7003C024000380240D3
:10231400E0A100084008002048080020014B18688C
:10232400704700BF4008002008B5FFF7F7FF044BD3
:102334009B68C3F38223034AD35CD84008BD00BF23
:1023440000380240F0A1000808B5FFF7E7FF044B8E
:102354009B68C3F34233034AD35CD84008BD00BF33
:1023640000380240F0A100082DE9F04782B005468C
:10237400884617461E46FFF747F90A9B1B1A03EBCC
:102384000609FFF741F982462B4B1B68C3F3CB3395
:1023940009FB03F301932B689C6838EA04030CBF20
:1023A4004FF0010C4FF0000CBC4540D0B6F1FF3F9C
:1023B400F1D0FFF729F9A0EB0A0048450AD2B9F198
:1023C400000F07D0019A02B14A46019B013B0193D9
:1023D4009146E0E72A68536823F0E00353606B6892
:1023E400B3F5827F0BD0AB6AB3F5005F14D0012341
:1023F40085F85130002385F85030032018E0AB688D
:10240400B3F5004F02D0B3F5806FECD12A6813689E
:1024140023F040031360E6E72A68136823F40053AB
:1024240013602A68136843F400531360DFE7002045
:1024340002B0BDE8F08700BF4008002010B584B0AA
:102444000446164B1868164BA3FB0030400D4FF49E
:102454007A7303FB00F003906368B3F5827F0BD0BB
:10246400039BBBB1039B013B039323689B6813F05D
:10247400800FF5D100200EE000920B46002280214F
:102484002046FFF771FF30B1636D43F020036365AD
:10249400032000E0002004B010BD00BF400800206D
:1024A400819F5E1600285AD010B50446436A33B99A
:1024B4004368B3F5827F05D00023C36102E00023A3
:1024C400036143610023A36294F85130002B40D090
:1024D400022384F851302268136823F04003136008
:1024E400636803F48273A26802F404421343E2684B
:1024F40002F400621343226902F002021343626988
:1025040002F001021343A26902F400721343E26968
:1025140002F038021343226A02F080021343A26AD3
:1025240002F40052216813430B60638B03F004032D
:10253400626A02F01002216813434B602268D36977
:1025440023F40063D36100206065012384F85130D3
:1025540010BD84F850302046FEF7C6FEB8E70120CF
:1025640070472DE9F04383B01D4690F85030012B9D
:1025740000F0D180044688469146012380F850300B
:10258400FFF742F8074694F85160F6B2012E40F086
:10259400AF80B8F1000F00F0AC80B9F1000F00F08B
:1025A400A880032384F8513000236365C4F8308085
:1025B400A4F83490A4F83690A363A387E3876364F4
:1025C4002364A368B3F5004F1ED023681A6812F081
:1025D400400F03D11A6842F040021A60E368B3F571
:1025E400006F1CD0636813B1B9F1010F52D1226B93
:1025F400236812781A73236B01332363E38E9BB22F
:10260400013B9BB2E38645E02268136823F0400354
:1026140013602268136843F480431360D5E763684A
:1026240013B1B9F1010F16D1226B23681288DA6055
:10263400236B02332363E38E9BB2013B9BB2E3869D
:1026440009E0FEF7E1FFC01BA84202D3B5F1FF3F4A
:1026540059D1002D59D0E38E9BB2002B33D023687F
:102664009A6812F0020FECD0226B1288DA60236BA6
:1026740002332363E38E9BB2013B9BB2E386EAE71A
:10268400FEF7C2FFC01BA84202D3B5F1FF3F3ED103
:10269400002D3ED0E38E9BB2ABB123689A6812F052
:1026A400020FEDD0226B12781A73236B013323636C
:1026B400B4F836C01FFA8CFC0CF1FF3C1FFA8CFCFA
:1026C400A4F836C0E6E73A4629462046FFF7B6FEA8
:1026D40008B120236365A36833B901932368DA68DA
:1026E40001929B680193019B636D13B9002600E07E
:1026F4000226012384F85130002384F850303046F8
:1027040003B0BDE8F0830326F3E70326F1E70326CD
:10271400EFE70326EDE70226F1E7000038B590F86D
:102724005030012B61D00446012380F8503090F8DA
:102734005150EDB29D4252D1002951D0002A4FD0C0
:10274400032380F851300023436501638286C286E7
:102754008363436403648387C3878368B3F5004F4B
:102764002AD0A36C224A1A64A36C224ADA63A36CAB
:10277400214ADA64A36C00221A652268E38E9BB2B4
:102784000C32216BA06CFFF7A9F80146F8B9236855
:102794001A6812F0400F03D11A6842F040021A601E
:1027A4002268536843F0200353602268536843F05F
:1027B400020353600D4613E00268136823F04003DC
:1027C40013600268136843F480431360C9E7636DC0
:1027D40043F010036365012384F8513000E00225BF
:1027E400002384F85030284638BD0225FBE700BF9B
:1027F40003280008312800080F280008704708B58E
:10280400806BFFF7FBFF08BD704708B5806B02685B
:10281400536823F003035360436D43F0100343658F
:10282400012380F85130FFF7EFFF08BD30B583B0C6
:102834000546846BFEF7E8FE2B681B6813F4807F63
:1028440023D1024621684B6823F020034B602168A2
:102854004B6823F002034B6064212046FFF7EEFD32
:1028640018B1636D43F020036365A36833B9019322
:102874002368DA6801929B680193019B0023E38635
:10288400012384F85130636D23B92046FEF71EFC02
:1028940003B030BD2046FFF7B7FFF9E738B504466B
:1028A4000268136923F44053C1680B4313618368BE
:1028B4000269134342691343C2691A430168CB682E
:1028C40023F4164323F00C031343CB6002685369CB
:1028D40023F4407381690B4353610368314A934283
:1028E40006D002F58062934202D0FFF71DFD01E09D
:1028F400FFF72AFDE369B3F5004F29D0002103183F
:1029040049411B1841F10001C90041EA5371DB0040
:10291400181863684FEA83024FEA937341F1000188
:10292400FDF77AFC204DA5FB00325109642303FB1B
:1029340011031B013233A5FB03235B0903F0F002EF
:1029440002EB011203F00F03216813448B6038BDBE
:102954000023021843EB0301121841F10001C900DE
:1029640041EA5271D200101841F1000162689218D4
:102974005B41FDF751FC0C4DA5FB0032510964236A
:1029840003FB1103DB003233A5FB03235B095A006D
:1029940002F4F87202EB011203F0070321681344F6
:1029A4008B60D4E7001001401F85EB5158B310B57C
:1029B400044690F83D300BB3242384F83D3022685C
:1029C400D36823F40053D3602046FFF767FF2268DF
:1029D400136923F4904313612268536923F02A0393
:1029E40053612268D36843F40053D3600020206409
:1029F400202384F83D3084F83E3010BD80F83C300C
:102A0400FEF756FDD8E70120704708B500F01AF923
:102A140008BD08B50846114600F00AF908BD2DE9BD
:102A2400F0410F4616461D46BDF81880002406E006
:102A340042463119384600F0F1F8013424B2AC4270
:102A4400F6DBBDE8F0812DE9F0410F4616461D4640
:102A5400BDF81880002406E042463146381900F0DB
:102A6400DDF8013424B2AC42F6DBBDE8F08108B5F0
:102A7400084611461A4600F0D1F808BD10B50446C0
:102A840000F09EF880236380A02323801023237109
:102A9400054B2361054B6362054BA362054B6361E0
:102AA400054BE36210BD00BF732A00084B2A0008DF
:102AB400232A0008172A00080F2A000810B582B03C
:102AC4008DF807000E4C01224FF480512046FFF789
:102AD40009F900224FF400512046FFF703F94FF0A3
:102AE400FF3301220DF107010648FFF73AFD0122E9
:102AF4004FF400512046FFF7F5F802B010BD00BFB7
:102B0400000402400009002010B50446000AFFF743
:102B1400D5FFE0B2FFF7D2FF10BD000010B582B0C0
:102B24008DF807000E4C00224FF480512046FFF729
:102B3400D9F800224FF400512046FFF7D3F84FF0A4
:102B4400FF3301220DF107010648FFF70AFD0122B8
:102B54004FF400512046FFF7C5F802B010BD00BF86
:102B6400000402400009002008B510F4807F03D05F
:102B7400C0B2FFF7D3FF08BDC0B2FFF79FFFFAE76B
:102B8400F8B505460C4617461E462A20FFF7C6FF31
:102B9400ADB2681C80B2FFF7B7FF3D44A8B2FFF79F
:102BA400B3FF2B20FFF7BAFFA4B2A01C80B2FFF73B
:102BB400ABFFA01980B2013080B2FFF7A5FFF8BDCA
:102BC40010B5144C002204212046FFF78BF8642032
:102BD400FEF720FD012204212046FFF783F864203C
:102BE400FEF718FD002405E00B4B33F81400FFF743
:102BF400BBFF01344B2CF7D9C820FEF70BFD112085
:102C0400FFF78CFF7820FEF705FD2920FFF786FFEC
:102C140010BD00BF0004024000A2000801EB8101C6
:102C240000EB4111014B23F811207047A409002047
:102C340001EB810100EB4111014B33F811007047A6
:102C4400A409002010B58023A02200210846FFF724
:102C540097FF2C20FFF762FF0A4C01224FF48051AA
:102C64002046FFF73FF800224FF400512046FFF7BB
:102C740039F84FF4204204490448FFF74FFD4FF45C
:102C8400204010BD00040240A409002000090020D7
:102C940008B501224FF400510148FFF723F808BD9D
:102CA40000040240D1F80620D1F80A3002604360E3
:102CB4008B7B4372CB7B83720B7CC3720020704787
:102CC4002DE9F04385B005460C461646114601A889
:102CD400FFF7E8FF00284BD19DF80DE085F800E0F0
:102CE4009DF80E306B700EF1070E4FEADE0E85F87C
:102CF40003E01EFB03FE5FFA8EFE85F802E09DF8FA
:102D04000F3053B9FF2C01D9012031E004FB0EF43C
:102D1400113426446E6018462AE006F1120C777CC2
:102D24003B464FF0000806E09B1A434403F10108B8
:102D34000CF1040C0B46591ECBB19CF800309CF8E6
:102D4400012003EB02229CF802309CF8039003EB71
:102D54000923A242E8D8A342E6D3A31A434403FBBF
:102D64000EF303EB870712373E446E6000E0012048
:102D740005B0BDE8F0832DE9F04182B00446C58872
:102D840006894789B0F80C8003884288013B013AE0
:102D940092B200929BB20022114600F08AFB238873
:102DA400013B6088013800B20021019100901BB200
:102DB4000A46204600F058FCCDF800803B463246D7
:102DC4002946204600F075FB02B0BDE8F081000002
:102DD40010B582B00B4C3C2200212046FEF720F8AF
:102DE4002046FFF74BFE23886288013B013A92B2EA
:102DF40000929BB200221146204600F05AFB204666
:102E040002B010BDA4A9002008B5C36A0BB198474D
:102E140008BD0020FCE710B4446BB0F82CC0007966
:102E2400C00800FB01F10CFB0211635210BC704797
:102E340010B4446BB0F82CC00379DB0803FB01F138
:102E44000CFB0211605A10BC704710B5BDF808C0E5
:102E5400446BB0F82CE00079C00800FB01F10EFBD4
:102E640002122244002103E022F802CB013189B28C
:102E74009942F9D310BD10B5BDF80840B0F82CE064
:102E840090F804C04FEADC0C0CFB01F10EFB0211BC
:102E9400426B02EB010E00220CE0AEF80040818D83
:102EA40090F804C04FEADC0C91FBFCF10EEB410EF0
:102EB400013292B29A42F0D310BD2DE9F043044698
:102EC400B3F800C0B3F90050B3F802E0B3F90270EC
:102ED4000088814262DC6688B2425FDC002929DB1B
:102EE4004FF0000C002A2FDB4FF000088946A0EBBE
:102EF400010E754501DD0FFA8EF51046B11A8F42A9
:102F040000DD0FB2002D49DB002F47DB626BA68D7D
:102F140094F804E04FEADE0E0EFB09F106FB001103
:102F24000A44596B9B8D0EFB0CFC03FB08C84144FF
:102F340000262FE00CEB01052DB20029B8BF494251
:102F44000FFA81FC0021CDE70EEB02073FB2002A05
:102F5400B8BF52420FFA82F80022C7E711F801CB3A
:102F640002F801CB01339BB21FFA8EFC9C45F5D8C5
:102F7400013080B2A84201DA0023F5E7A08D94F86D
:102F840004C04FEADC0C90FBFCF0431B03FB0E2255
:102F94000136B6B2BE4201DA0020EBE7BDE8F083A9
:102FA4002DE9F047BDF82050099E3488B6F802C0D8
:102FB4004FEA044E9EFBF3FE4FEA0C4C9CFBF5FCDF
:102FC400B0F8008041457DDCB0F802904A4579DCD8
:102FD400002925DB002A28DB0F46A8EB010A53450C
:102FE40003DD89B2A8EB01018BB29046A9EB020183
:102FF4008D4203DD92B2A9EB020295B202794FEA47
:10300400D209103AD2B2072A33D8416B828D09FB18
:1030140007F702FB08784144D6F83480002724E0FF
:1030240013FA81F39BB20021D4E715FA82F5ADB20D
:103034000022D1E70EFB06F90CFB07F212FB24F287
:1030440002EB1942D2B238F8122021F8022B0136D1
:10305400B6B2B342EED8828D0679F60892FBF6F248
:10306400D21A01EB42010137BFB2BD422AD9002670
:10307400EFE7416B828D09FB07F702FB08784144B7
:10308400D6F83480002719E00EFB06F90CFB07F292
:1030940012FB24F202EB1942D2B218F8022001F812
:1030A400012B0136B6B2B342EED8828D0679F6080A
:1030B40092FBF6F2D21A11440137BFB2BD4201D9D4
:1030C4000026F0E7BDE8F08789B2018042800371F1
:1030D400DDF800C0C0F834C0DB0813FB01F39BB279
:1030E400838502FB03F303630023C3800381013957
:1030F4004181013A8281064B0361064B4361064BD1
:103104004362064B8362064BC361064B03627047FE
:103114001B2E0008352E00084F2E00087B2E0008B9
:10312400BF2E0008A52F00082DE9F04383B0884680
:1031340091461E460190C469002C32D0C38899423E
:103144000CDB03899A4209DB33880B44428993429E
:1031540004DC73884B448289934219DD756B002724
:1031640011E004EB080107EB090235F8023B12B247
:1031740009B2019800F060FA0134A4B23388A34282
:10318400EFD80137BFB27388BB4207D90024F5E7F3
:1031940033461FFA89F289B201A8A04703B0BDE8FB
:1031A400F0835D6B002711E004EB080107EB0902D3
:1031B40035F8023B12B209B2019800F03DFA01342D
:1031C400A4B23388A342EFD80137BFB27388BB429D
:1031D400E4D90024F5E700002DE9F04192B0064659
:1031E40017469846BDF86040199A02A8FFF768FD93
:1031F40000284BD10546264B1B686BB1244B1B683A
:10320400009333799DF809209DF8081004A8FFF76E
:103214005BFF1199284628E001216C20FDF784F911
:103224001B4B1860EAE7002321F8023B0CF1010C68
:103234005FFA8CFC9DF8083063450FD9CCF3C702C4
:10324400039B9B560CF0070E802242FA0EF21340A9
:103254005BB2002BE7D021F8024BE7E79DF80B2087
:10326400039B134403930130C0B29DF80930834299
:1032740001D9AC46DEE704AB424639463046FFF797
:1032840053FF9DF8100012B0BDE8F0810020FAE76A
:10329400E0A900202DE9F04786B007460C46154604
:1032A4001E46BDF83890DDF83C801FFA82FA41468C
:1032B40003A8FFF7F7FC40B100201CE09DF816308E
:1032C4001E4436B20025236893B1216804340D29C5
:1032D400F4D00A29F2D0CDF80480CDF8009033461A
:1032E4002A463846FFF778FF15FA80F52DB2EAE74B
:1032F400A5EB0A0080B206B0BDE8F08782B00DF1FC
:10330400080C0CE90C00BDF80030984205DBBDF850
:10331400043098420ADC002000E00120BDF80230AD
:10332400994205DA40F0040002B070470220F5E744
:10333400BDF806309942F7DD40F00800F4E72DE9C6
:10334400F843074689461646984608AB0CCBB1F9B4
:103354000010B0F90000FFF7D1FF044608AB0CCB16
:10336400B8F90010B6F90000FFF7C8FF05462AE0D7
:103374002B4635E013F0040F4FD0B7F900C0B6F96F
:103384000020A2EB0C02BDF82210B9F900E0A1EB79
:103394000E0000FB02F2B8F90000A0EB0E0092FB55
:1033A400F0F212FA8CFC0FFA8CFC09B29C426FD03A
:1033B400A6F800C0A8F8001008AB0CCBB6F90000C2
:1033C400FFF79CFF054644EA050313F0FF0F6BD09B
:1033D40004EA050313F0FF0F69D1002CC8D023467B
:1033E40013F0080FC6D0B7F900C0B6F90020A2EB5D
:1033F4000C02BDF82610B9F900E0A1EB0E0000FBA9
:1034040002F2B8F90000A0EB0E0092FBF0F212FAFF
:103414008CFC0FFA8CFC09B2C8E713F0020F18D029
:10342400B9F90010B8F90020521ABDF824C0B7F950
:1034340000E0ACEB0E0000FB02F2B6F90000A0EBDA
:103444000E0092FBF0F212FA81F109B20FFA8CFC31
:10345400ACE713F0010F18D0B9F90010B8F9002047
:10346400521ABDF820C0B7F900E0ACEB0E0000FB27
:1034740002F2B6F90000A0EB0E0092FBF0F212FA91
:1034840081F109B20FFA8CFC90E700218C468DE79C
:10349400A7F800C0A9F8001008AB0CCBB7F90000DE
:1034A400FFF72CFF04468EE70120BDE8F8830020D7
:1034B400FBE7C18002814381BDF8003083817047FE
:1034C400F0B585B0BDF828500390446A64B30FFA90
:1034D40083FEB0F80AC0614524DC8689B24221DC4F
:1034E4000689B2421EDBC088814203DA0B440FFA1C
:1034F40083FE01B2BEF1000F14DD01EB0E039C4507
:103504000BDA1FFA8EFE0EEB01039BB2ACEB030346
:103514001EFA83F301330FFA83FE00951FFA8EF32C
:1035240003A8A04705B0F0BD0B449BB2013B019535
:1035340000921BB200F001F8F4E72DE9F04F87B0D8
:103544000546BDF84480ADF81610ADF81420ADF86A
:1035540012306B46D0F80600D5F80A1003C310AB3E
:103564000DF1120205A90DF11600FFF7E8FED0B324
:10357400BDF91220BDF91630A2EB030BBBF1000F0D
:10358400B8BFCBF1000B0FFA8BF79A4218DD4FF05E
:10359400010ABDF94020BDF91430A2EB0309B9F1C9
:1035A400000FB8BFC9F100090FFA89F69A420ADD83
:1035B40001230393B7420ADD07EBD774641017E0C5
:1035C4004FF0FF3AE5E74FF0FF330393F2E706EBE2
:1035D400D6746410644224B20AE0BDF91410BDF933
:1035E4004030994212D107B0BDE8F08F9E421ADCF8
:1035F4004346BDF91420BDF91610284600F01CF806
:10360400BDF91620BDF912309A42E6D0A1B24B00A2
:103614001BB278428342E9DDA1EB09010CB25244AA
:10362400ADF81620E2E75C4424B2BDF81430039AE6
:103634001344ADF81430DBE710B582B00190B0F854
:1036440006C061450EDBB0F808C062450ADBB0F87D
:103654000AC0614506DCB0F80CC0624502DC0469AE
:1036640001A8A04702B010BD2DE9F04784B0BDF910
:103674003050BDF834600390994202DC1C460B467E
:103684002146AA4202DC2C46154622460F46C4882F
:10369400A14245DB1146B0F80880424540DB9C4618
:1036A400428993423CDC83899D4239DC6445B8BF3E
:1036B40064460FFA84FAA845B8BFA8469742D4BF17
:1036C400C4EB0704C4EB0204A5B20135ADB21FFA82
:1036D40088F89942D4BFC8EB0109C8EB03091FFA63
:1036E40089F909F101091FFA89F9002409E008EBB5
:1036F400040200962B4612B25146FFF7E1FE013454
:10370400A4B24C450CD20398476A002FEFD008EBC3
:10371400040200962B4612B2514603A8B847EEE7BE
:1037240004B0BDE8F087000200F4784000B2C9009C
:1037340001F4FC61084340EAD20290B2C2F30722CA
:1037440042EA002080B27047024B13B10248FCF7F2
:10375400E5BE704700000000B1050008F8B500BFE1
:10376400F8BC08BC9E467047F8B500BFF8BC08BC5E
:043774009E467047B6
:103778000800002048000000650000006C00000000
:103788006C0000006F0000002000000057000000DF
:103798006F000000720000006C0000006400000070
:1037A8002100000000000000464F4E5458324D4999
:1037B8005343202020200A1400000000000000735A
:1037C80080408040800000000040804080408000B1
:1037D800000000408040807380000000000000006E
:1037E800000000000000000000000000000C001EA7
:1037F800003F007F807F803F001E000C000000001B
:103808000000000000000000005540AA805540AAB2
:10381800805540AA805540AA805540AA805540AAA4
:10382800805540AA805540AA805540AA805540AA94
:1038380080000000006600660066007E0066006684
:1038480000660000001F800600060006000600064D
:10385800000000000000000000000000007C006084
:1038680000600078006000600060000F800C000CB1
:10387800000F000C000C000C00000000000000000D
:1038880000000000003C0066006000600066003C2C
:103898000000001F00198019801F001E001B00195E
:1038A8008000000000000000000000000030003030
:1038B800003000300030003E0000000F800C000C8B
:1038C800000F000C000C000C0000000000000000BD
:1038D800000000000000000C001E00330033001E32
:1038E800000C0000000000000000000000000000C4
:1038F80000000000000000000000000000000000C0
:10390800000000000000000C000C007F800C000C80
:103918000000007F800000000000000000000000A0
:103928000000000000660076007E007E006E0066E3
:103938000000000C000C000C000C000C000C000F28
:103948008000000000000000000000000066006623
:103958000066003C003C001800180000001F8006AC
:103968000006000600060006000000000000000037
:1039780000080008000800080008000800080008FF
:10398800000800F80000000000000000000000002F
:10399800000000000000000000000000000000001F
:1039A8000000000000000000000000F80008000807
:1039B80000080008000800080008000800080008BF
:1039C80000000000000000000000000000000000EF
:1039D8000000000FC00800080008000800080008E0
:1039E800000800080008000800080008000800088F
:1039F80000080008000800080008000FC0000000C8
:103A080000000000000000000000000000000000AE
:103A1800000800080008000800080008000800085E
:103A2800000800FFC0080008000800080008000897
:103A3800000800080008000800FFC000000000009F
:103A4800000000000000000000000000000000006E
:103A5800000000000000000000000000000000005E
:103A68000000000000000000000000FFC00000008F
:103A7800000000000000000000000000000000003E
:103A8800000000000000000000000000000000002E
:103A98000000000000000000000000FFC00000005F
:103AA800000000000000000000000000000000000E
:103AB80000000000000000000000000000000000FE
:103AC80000000000000000000000000000FFC0002F
:103AD80000000000000000000000000000000000DE
:103AE80000000000000000000000000000000000CE
:103AF800000000000000000000000000000000FFBF
:103B0800C0080008000800080008000800080008AD
:103B18000008000FC0080008000800080008000896
:103B2800000800080008000800080008000800084D
:103B38000008000800080008000800F8000800084D
:103B4800000800080008000800080008000800082D
:103B5800000800080008000800080008000800081D
:103B6800000800FFC0000000000000000000000086
:103B7800000000000000000000000000000000003D
:103B88000000000000000000000000FFC00800085E
:103B980000080008000800080008000800080008DD
:103BA80000080008000800080008000800080008CD
:103BB80000080008000800080008000800080008BD
:103BC80000080008000800080000000000000000CD
:103BD800000000000003800E003800E00038000EEE
:103BE80000038000000000FF8000000000000000CB
:103BF80000000000000000000000000000E00038A5
:103C0800000E0003800E003800E00000000000FFF6
:103C1800800000000000000000000000000000001C
:103C28000000000000000000007F803300330033F4
:103C380000330033003300330000000000000000B0
:103C48000000000000000000000000000003000366
:103C58000006007F800C000C007F801800300030C8
:103C6800000000000000000000000000000000004C
:103C7800000F0019801980180018007E001800181D
:103C88000018007C0056C07380000000000000008F
:103C9800000000000000000000000000000000001C
:103CA800000E000E000E00000000000000000000E2
:103CB80000000000000000000000000000000000FC
:103CC80000000000000000000000000000000000EC
:103CD80000000000000000000000000000000000DC
:103CE800000000000000000C000C000C000C000C90
:103CF800000C000C000C000C000C0000000C000C68
:103D08000000000000000000000000000000003378
:103D18000033003300120000000000000000000023
:103D2800000000000000000000000000000000008B
:103D38000000000000000000000D800D800D803F95
:103D4800C01B001B001B007F8036003600360000B9
:103D58000000000000000000000000000000000C4F
:103D6800003F006D806C006C006C003F000D800D02
:103D7800800D806D803F000C0000000000000000F6
:103D880000000000000000000039806D806F003BDB
:103D980000060006000C000C001B801EC036C03355
:103DA8008000000000000000000000000000001C6F
:103DB800003600360036003C00180038006C0066FB
:103DC800C06380630077803CC000000000000000F2
:103DD800000000000000000C000C000C000C0008A3
:103DE80000000000000000000000000000000000CB
:103DF80000000000000000000000000000000003B8
:103E08000006000C000C0018001800180018001814
:103E1800000C000C00060003000000000000000079
:103E280000000000000000300018000C000C000624
:103E38000006000600060006000C000C0018003002
:103E4800000000000000000000000000000000006A
:103E58000000000000330033001E007F801E003386
:103E68000033000000000000000000000000000017
:103E7800000000000000000000000000000C000C22
:103E8800000C007F800C000C000C000000000000FB
:103E9800000000000000000000000000000000001A
:103EA800000000000000000000000000000000000A
:103EB80000000000000E000E001C000000000000C2
:103EC80000000000000000000000000000000000EA
:103ED8000000007F800000000000000000000000DB
:103EE80000000000000000000000000000000000CA
:103EF80000000000000000000000000000000000BA
:103F08000000000E000E000E00000000000000007F
:103F18000000000000000000000180018003000391
:103F280000060006000C000C0018001800300030D5
:103F38000000000000000000000000000000000C6D
:103F4800001E003300330061806180618061806100
:103F580080330033001E000C000000000000000049
:103F6800000000000000000C001C003C006C000C6D
:103F7800000C000C000C000C000C000C000C007F66
:103F88008000000000000000000000000000001E8B
:103F9800003300618061800180018003000E0018F9
:103FA800003000600060007F80000000000000001A
:103FB800000000000000001E0033006180618001E5
:103FC8008003000E00030001806180618033001EC1
:103FD80000000000000000000000000000000001D8
:103FE80000030007000F001B003300630063007F1D
:103FF800800300030003000300000000000000002D
:10400800000000000000007F806000600060006029
:10401800006E007300018001800180618033001E02
:104028000000000000000000000000000000001E6A
:104038000033006100600060006E00730061806101
:10404800806180618033001E0000000000000000D5
:10405800000000000000007F800180018003000351
:1040680000060006000C000C001800180030003094
:104078000000000000000000000000000000001E1A
:1040880000330061806180618033001E003300616D
:10409800806180618033001E000000000000000085
:1040A800000000000000001E003300618061806194
:1040B80080618033801D8001800180218033001E53
:1040C80000000000000000000000000000000000E8
:1040D8000000000000000000000E000E00000000BC
:1040E80000000000000E000E0000000000000000AC
:1040F80000000000000000000000000000000000B8
:10410800000E000E0000000000000000000E000E6F
:10411800001C00000000000000000000000000017A
:1041280000030006000C0018003000600030001882
:10413800000C000600030001000000000000000061
:104148000000000000000000000000000000007FE8
:104158008000000000000000007F800000000000D8
:104168000000000000000000000000000000002027
:1041780000300018000C0006000300018003000650
:10418800000C0018003000200000000000000000B3
:10419800000000000000001E0033006180618061A3
:1041A80080030006000C000C000C0000000C000C42
:1041B8000000000000000000000000000000001ED9
:1041C800003300618067806F806D806D806D806FC7
:1041D800006600600031801F000000000000000041
:1041E800000000000000000C001E003300330061D6
:1041F80080618061807F8061806180618061806191
:104208008000000000000000000000000000007CAA
:1042180000660063006300630066007E006300615F
:10422800806180618063007E000000000000000063
:10423800000000000000001E003300618060006084
:104248000060006000600060006000618033001E54
:104258000000000000000000000000000000007ED8
:10426800006300618061806180618061806180613C
:10427800806180618063007E000000000000000013
:10428800000000000000007F8060006000600060A7
:104298000060007E00600060006000600060007FD9
:1042A8008000000000000000000000000000007F07
:1042B80080600060006000600060007E0060006058
:1042C8000060006000600060000000000000000066
:1042D800000000000000001E0033006180600060E4
:1042E8000060006780618061806180618033801E2A
:1042F80080000000000000000000000000000061D5
:1043080080618061806180618061807F806180617F
:104318008061806180618061800000000000000091
:10432800000000000000007F800C000C000C000C56
:10433800000C000C000C000C000C000C000C007FA2
:104348008000000000000000000000000000000FD6
:10435800C00300030003000300030003000300037D
:10436800006300630036001C00000000000000002D
:104378000000000000000061806180630063006647
:104388000066007C0066006600630063006180616F
:104398008000000000000000000000000000006035
:1043A8000060006000600060006000600060006005
:1043B800006000600060007F8000000000000000D6
:1043C8000000000000000061806180738073807FBE
:1043D800806D806D806D806D80618061806180619D
:1043E80080000000000000000000000000000061E4
:1043F8008071807180798079806D806D8067806739
:10440800806380638061806180000000000000009C
:10441800000000000000001E003300618061806120
:104428008061806180618061806180618033001E6D
:104438000000000000000000000000000000007EF6
:10444800006300618061806180618063007E00603C
:1044580000600060006000600000000000000000D4
:10446800000000000000001E0033006180618061D0
:104478008061806180618061806D80678033001F0A
:104488000001800000000000000000000000007E25
:10449800006300618061806180618063007E0066E6
:1044A800006300630061806180000000000000007C
:1044B800000000000000001E003300618060006002
:1044C8000030001E00030001800180618033001E5F
:1044D8000000000000000000000000000000007F55
:1044E800800C000C000C000C000C000C000C000CE4
:1044F800000C000C000C000C000000000000000084
:1045080000000000000000618061806180618061BE
:104518008061806180618061806180618033001E7C
:104528000000000000000000000000000000006122
:10453800806180618061803300330033001E001E7B
:10454800001E000C000C000C000000000000000021
:10455800000000000000006180618061806180616E
:10456800806D806D806D806D8073807380618061E7
:104578008000000000000000000000000000006152
:10458800806180330033001E001E000C001E001ED8
:1045980000330033006180618000000000000000EB
:1045A8000000000000000061806180330033001EBD
:1045B800001E000C000C000C000C000C000C000C81
:1045C8000000000000000000000000000000007F64
:1045D80080018001800300060006000C0018001806
:1045E800003000600060007F8000000000000000D4
:1045F800000000000000003F0030003000300030B4
:104608000030003000300030003000300030003F13
:104618000000000000000000000000000000000092
:104628000030003000180018000C000C00060006CE
:10463800000300030001800180000000000000006A
:10464800000000000000003F000300030003000317
:104658000003000300030003000300030003003FFE
:104668000000000000000000000000000000000C36
:10467800001E003300618000000000000000000000
:104688000000000000000000000000000000000022
:104698000000000000000000000000000000000012
:1046A8000000000000000000000000000000000002
:1046B800007FC0000000000000000000000000189B
:1046C800000C0006000000000000000000000000D0
:1046D80000000000000000000000000000000000D2
:1046E80000000000000000000000000000000000C2
:1046F800001F00318001803F806180618061803EC1
:1047080080000000000000000000000000000060C1
:104718000060006000600060006E007300618061EE
:10472800806180618073006E00000000000000005E
:104738000000000000000000000000000000000071
:10474800001F003180600060006000600031801F41
:104758000000000000000000000000000000000150
:104768008001800180018001801D8033806180612B
:10477800806180618033801D80000000000000009F
:104788000000000000000000000000000000000021
:10479800001E00330061807F806000600031801F50
:1047A8000000000000000000000000000000000FF2
:1047B8000019801980180018007E001800180018C9
:1047C8000018001800180018000000000000000081
:1047D80000000000000000000000000000000000D1
:1047E800003E8063806300630063003E0060003F1A
:1047F800006180618061803F00000000000000606F
:104808000060006000600060006E007300618061FD
:10481800806180618061806180000000000000008C
:1048280000000000000000000000000C000C000068
:10483800003C000C000C000C000C000C000C007F6D
:1048480080000000000000000000000000000000E0
:1048580000000001800180000007800180018001C4
:104868008001800180018001803180318031801F8A
:104878000000000000000060006000600060006050
:1048880000630066006C0078007C006600630061CD
:104898008000000000000000000000000000003C54
:1048A800000C000C000C000C000C000C000C000CA0
:1048B800000C000C000C007F8000000000000000CD
:1048C80000000000000000000000000000000000E0
:1048D800005B007F806D806D806D806D806D806D68
:1048E8008000000000000000000000000000000040
:1048F8000000000000000000006E0073006180618D
:10490800806180618061806180000000000000009B
:10491800000000000000000000000000000000008F
:10492800001E003300618061806180618033001E59
:10493800000000000000000000000000000000006F
:104948000000000000000000006E0073006180613C
:10495800806180618073006E0060006000600060AC
:10496800000000000000000000000000000000003F
:10497800001D803380618061806180618033801D8B
:10498800800180018001800180000000000000009B
:104998000000000000000000006F00398030003087
:1049A800003000300030003000000000000000003F
:1049B80000000000000000000000000000000000EF
:1049C800003F00618060003F000180018061803FFE
:1049D80000000000000000000000000000000000CF
:1049E8000000001800180018007E001800180018B1
:1049F800001800180019800F0000000000000000D7
:104A0800000000000000000000000000000000009E
:104A18000061806180618061806180618033801D78
:104A280080000000000000000000000000000000FE
:104A38000000000000000000006180618033003346
:104A4800001E001E000C000C00000000000000000A
:104A5800000000000000000000000000000000004E
:104A6800006180618061806D806D806D807F8033A2
:104A7800000000000000000000000000000000002E
:104A8800000000000000000000618033001E000CE0
:104A9800000C001E003300618000000000000000D0
:104AA80000000000000000000000000000000000FE
:104AB8000061806180618061806180618033801DD8
:104AC800800180618033001E0000000000000000AB
:104AD8000000000000000000003F80018003000685
:104AE800000C00180030003F8000000000000000AB
:104AF8000000000000000007800C000C000C000CF7
:104B0800000C0078000C000C000C000C000C0007D6
:104B18008000000000000000000000000000000C01
:104B2800000C000C000C000C000C000C000C000C1D
:104B3800000C000C000C000C00000000000000003D
:104B48000000000000000078000C000C000C000CB5
:104B5800000C0007800C000C000C000C000C007806
:104B68000000000000000000000000000000003904
:104B7800806D806700000000000000000000000059
:104B8800000000000000000000000000000000001D
:104B9800000000000000000000000000000000000D
:104BA80000000000000000000000000000000000FD
:104BB80000000000000000000000000000000000ED
:1050E800000000000000000C000C0000000C000C88
:1050F800000C000C000C000C000C000C000C000C48
:105108000000000000000000000000000000000097
:10511800000C000C001E003300610060006000619C
:105128000033001E000C000C00000000000000000E
:105138000000000000000000000F0019801980180E
:105148000018007E001800180018007C0056C07374
:1051580080000000000000000000000000000000C7
:1051680000000000008080DD807F00630063006332
:10517800007F00DD8080800000000000000000004B
:105188000000000000000000000000408061803343
:10519800001E003F000C003F000C000C000C000C2F
:1051A8000000000000000000000000000000000CEB
:1051B800000C000C000C000C000000000000000CAB
:1051C800000C000C000C000C0000000000000000A7
:1051D800000000000000001E003300630030003CA7
:1051E800006600330019800F000300318033001E71
:1051F8000000000000000000000000000000003374
:105208000033000000000000000000000000000063
:105218000000000000000000000000000000000086
:1052280000000000000000000000001E00330061C4
:10523800805E805280508052805E80618033001E84
:105248000000000000000000000000000000001F37
:1052580000218001803F80618061803E8000007F66
:1052680080000000000000000000000000000000B6
:10527800000000000000000000000004800D801BFA
:105288000036006C00D8006C0036001B000D80044E
:105298008000000000000000000000000000000086
:1052A8000000000000000000007F807F8001800176
:1052B8008000000000000000000000000000000066
:1052C80000000000000000000000000000000000D6
:1052D8000000003F00000000000000000000000087
:1052E80000000000000000000000000000000000B6
:1052F8000000001E00330061805E8052805E805492
:10530800805680618033001E00000000000000000D
:1053180000000000007F8000000000000000000086
:105328000000000000000000000000000000000075
:105338000000000000000000000000000000000C59
:10534800001E00330033001E000C000000000000A7
:105358000000000000000000000000000000000045
:105368000000000000000000000000000000000C29
:10537800000C007F800C000C0000007F8000000003
:105388000000000000000000000000000000001CF9
:1053980000360006000C00180030003E0000000037
:1053A80000000000000000000000000000000000F5
:1053B800000000000000001C00360006000C00067B
:1053C8000036001C00000000000000000000000083
:1053D80000000000000000000000000000000006BF
:1053E800000C001800000000000000000000000091
:1053F80000000000000000000000000000000000A5
:105408000000000000000000000000000000000094
:105418000000006300630063006300630077007DA1
:105428000060006000600000000000000000003F15
:10543800807F807D807D807D803D800D800D800D0A
:10544800800D800D800D800D8000000000000000A0
:105458000000000000000000000000000000000044
:10546800000E000E000E000000000000000000000A
:105478000000000000000000000000000000000024
:105488000000000000000000000000000000000014
:105498000000000000000000000C00060036001CA0
:1054A800000000000000001800380018001800185C
:1054B8000018003C00000000000000000000000090
:1054C8000000000000000000000000000000001CB8
:1054D80000360063006300630036001C0000007F94
:1054E80000000000000000000000000000000000B4
:1054F800000000000000000000000048006C0036BA
:10550800001B000D8006C00D801B0036006C004893
:105518000000000000000000000000000000002063
:10552800006000208021007200040009001300259B
:10553800004F000100010000000000000000000012
:1055480000000000000000200060002080210072A0
:105558000004000B00148020804100020007800036
:1055680000000000000000000000000000000070C3
:1055780000080030800900720004000900130025AB
:10558800004F800100010000000000000000000042
:10559800000000000000000C000C0000000C000CD3
:1055A800000C001800300061806180618033001EAB
:1055B8000000000000000000000000300018000C8F
:1055C8000000000C001E0033006180618061807F54
:1055D80080618061806180618000000000000000BF
:1055E800000000030006000C0000000C001E003341
:1055F800006180618061807F8061806180618061FD
:1056080080000000000000000000000C001E0033B5
:105618000000000C001E0033006180618061807F03
:10562800806180618061806180000000000000006E
:1056380000000019003F00260000000C001E003387
:10564800006180618061807F8061806180618061AC
:10565800800000000000000000000033003300005C
:10566800000C001E00330033006180618061807F80
:10567800806180618061806180000000000000001E
:10568800001E00330033001E0000000C001E003313
:10569800006180618061807F80618061806180615C
:1056A8008000000000000000000000000000000F63
:1056B800801E0036003600660066007F8066006641
:1056C80000660066006600678000000000000000B9
:1056D800000000000000001E0033006180600060D0
:1056E8000060006000600060006000618033001EA0
:1056F800000C00060036001C000000300018000CEA
:105708000000007F8060006000600060007E006034
:10571800006000600060007F800000000000000062
:1057280000000006000C00180000007F8060006088
:1057380000600060007E0060006000600060007F24
:1057480080000000000000000000000C001E003374
:105758000000007F8060006000600060007E0060E4
:10576800006000600060007F800000000000000012
:1057780000000033003300000000007F80600060FC
:1057880000600060007E0060006000600060007FD4
:10579800800000000000000000000018000C000657
:1057A8000000003F000C000C000C000C000C000C6A
:1057B800000C000C000C003F00000000000000007E
:1057C80000000006000C00180000003F000C000C50
:1057D800000C000C000C000C000C000C000C003F2E
:1057E80000000000000000000000000C001E003354
:1057F8000000003F000C000C000C000C000C000C1A
:10580800000C000C000C003F00000000000000002D
:105818000000003300330000003F000C000C000CB7
:10582800000C000C000C000C000C000C000C003FDD
:105838000000000000000000000000000000007EE2
:105848000063006180618061806180F980618061AE
:10585800806180618063007E00000000000000001D
:1058680000000019003F0026000000618071807967
:105878008079806D806D80678067806380618061DA
:10588800800000000000000000000018000C000666
:105898000000001E003300618061806180618061CA
:1058A800806180618033001E00000000000000005D
:1058B80000000006000C00180000001E0033006104
:1058C8008061806180618061806180618033001EB9
:1058D80000000000000000000000000C001E003363
:1058E8000000001E0033006180618061806180617A
:1058F800806180618033001E00000000000000000D
:1059080000000019003F00260000001E003300615F
:105918008061806180618061806180618033001E68
:105928000000000000000000000000330033000009
:10593800001E003300618061806180618061806148
:10594800806180618033001E0000000000000000BC
:10595800000000000000000000000000000000003F
:10596800004100630036001C001C00360063004143
:105978000000000000000000000000000000801F80
:105988000033006380638065806580658069806915
:10599800806980718033003E0040000000000000F4
:1059A80000000018000C00060000006180618061A2
:1059B8008061806180618061806180618033001EC8
:1059C800000000000000000000000006000C0018A5
:1059D8000000006180618061806180618061806118
:1059E800806180618033001E00000000000000001C
:1059F8000000000C001E003300000061806180611F
:105A08008061806180618061806180618033001E77
:105A18000000000000000000000000330033000018
:105A280000618061806180618061806180618061E6
:105A3800806180618033001E0000000000000000CB
:105A480000000006000C001800000061806180332F
:105A58000033001E001E000C000C000C000C000C93
:105A680000000000000000000000000000000030FE
:105A780000300030003F003180318031803180318A
:105A8800803F0030003000300000000000000000BF
:105A9800000000000000000E001B00318031803340
:105AA8000076003600330031803180318033003693
:105AB80000000000000000000000000000000000DE
:105AC8000018000C00060000003F00618001803FC4
:105AD800806180618061803E8000000000000000DD
:105AE80000000000000000000006000C0018000084
:105AF800003F00618001803F806180618061803E5D
:105B0800800000000000000000000000000000000D
:105B1800000C001E00330000003F00618001803F40
:105B2800806180618061803E80000000000000008C
:105B380000000000000000000019003F00260000DF
:105B4800003F00618001803F806180618061803E0C
:105B580080000000000000000000000000000000BD
:105B68000000003300330000003F00618001803FE7
:105B7800806180618061803E80000000000000003C
:105B8800000000000000001E00330033001E00006B
:105B9800003F00618001803F806180618061803EBC
:105BA800800000000000000000000000000000006D
:105BB8000000000000000000003B004D800D800F39
:105BC800003C006C006C8037000000000000000002
:105BD80000000000000000000000000000000000BD
:105BE800001F003180600060006000600031801F8D
:105BF800000C00060036001C000000000000000039
:105C080000300018000C0000001E00330061807F87
:105C1800806000600031801F00000000000000006C
:105C2800000000000000000000030006000C000057
:105C3800001E00330061807F806000600031801F9B
:105C4800000000000000000000000000000000004C
:105C5800000C001E00330000001E00330061807F2E
:105C6800806000600031801F00000000000000001C
:105C780000000000000000000000003300330000B6
:105C8800001E00330061807F806000600031801F4B
:105C980000000000000000000000000000000000FC
:105CA80000300018000C0000003C000C000C000C38
:105CB800000C000C000C007F8000000000000000B9
:105CC80000000000000000000006000C00180000A2
:105CD800003C000C000C000C000C000C000C007FB9
:105CE800800000000000000000000000000000002C
:105CF800000C001E00330000003C000C000C000CDF
:105D0800000C000C000C007F800000000000000068
:105D18000000000000000000000000330033000015
:105D2800003C000C000C000C000C000C000C007F68
:105D38008000000000000000000000000000004497
:105D4800006C00380038006C0046001F003380618A
:105D5800806180618033001E0000000000000000A8
:105D680000000000000000000019003F00260000AD
:105D7800006E007300618061806180618061806174
:105D8800800000000000000000000000000000008B
:105D980000300018000C0000001E00330061806114
:105DA800806180618033001E000000000000000058
:105DB800000000000000000000030006000C0000C6
:105DC800001E003300618061806180618033001EA5
:105DD80000000000000000000000000000000000BB
:105DE800000C001E00330000001E003300618061BB
:105DF800806180618033001E000000000000000008
:105E080000000000000000000019003F002600000C
:105E1800001E003300618061806180618033001E54
:105E2800000000000000000000000000000000006A
:105E38000000003300330000001E00330061806161
:105E4800806180618033001E0000000000000000B7
:105E580000000000000000000000000C000C000022
:105E68000000007F807F80000000000C000C000014
:105E7800000000000000000000000000000000001A
:105E88000000000000000000801F003300658065EE
:105E9800806980698033003E0040000000000000F7
:105EA80000000000000000000018000C00060000C0
:105EB8000061806180618061806180618033801DC4
:105EC800800000000000000000000000000000004A
:105ED80000030006000C00000061806180618061A1
:105EE800806180618033801D800000000000000018
:105EF8000000000000000000000C001E003300003D
:105F08000061806180618061806180618033801D73
:105F180080000000000000000000000000000000F9
:105F280000000033003300000061806180618061FF
:105F3800806180618033801D8000000000000000C7
:105F480000000000000000000006000C001800001F
:105F58000061806180618061806180618033801D23
:105F6800800180618033001E0000000000000030C6
:105F780000300030003000300030003E0033003187
:105F8800803180318033003E0030003000300030F6
:105F98000000000000000000000000330033000093
:105FA8000061806180618061806180618033801DD3
:105FB800800180618033001E00000000464F4E546F
:105FC80058324D495343202020200507019D2000C9
:105FD8007E00A0001F025002A802B602B602B80254
:105FE800B902BC02BD02C602C902CC02CC02D00270
